{
  "abi": [
    {
      "inputs": [
        {
          "internalType": "address",
          "name": "_apecoin",
          "type": "address"
        },
        {
          "internalType": "uint256",
          "name": "_minPrice",
          "type": "uint256"
        }
      ],
      "stateMutability": "nonpayable",
      "type": "constructor"
    },
    {
      "anonymous": false,
      "inputs": [
        {
          "indexed": true,
          "internalType": "address",
          "name": "owner",
          "type": "address"
        },
        {
          "indexed": true,
          "internalType": "address",
          "name": "approved",
          "type": "address"
        },
        {
          "indexed": true,
          "internalType": "uint256",
          "name": "tokenId",
          "type": "uint256"
        }
      ],
      "name": "Approval",
      "type": "event"
    },
    {
      "anonymous": false,
      "inputs": [
        {
          "indexed": true,
          "internalType": "address",
          "name": "owner",
          "type": "address"
        },
        {
          "indexed": true,
          "internalType": "address",
          "name": "operator",
          "type": "address"
        },
        {
          "indexed": false,
          "internalType": "bool",
          "name": "approved",
          "type": "bool"
        }
      ],
      "name": "ApprovalForAll",
      "type": "event"
    },
    {
      "anonymous": false,
      "inputs": [
        {
          "indexed": false,
          "internalType": "uint256",
          "name": "_fromTokenId",
          "type": "uint256"
        },
        {
          "indexed": false,
          "internalType": "uint256",
          "name": "_toTokenId",
          "type": "uint256"
        }
      ],
      "name": "BatchMetadataUpdate",
      "type": "event"
    },
    {
      "anonymous": false,
      "inputs": [
        {
          "indexed": false,
          "internalType": "uint256",
          "name": "_tokenId",
          "type": "uint256"
        }
      ],
      "name": "MetadataUpdate",
      "type": "event"
    },
    {
      "anonymous": false,
      "inputs": [
        {
          "indexed": true,
          "internalType": "address",
          "name": "from",
          "type": "address"
        },
        {
          "indexed": true,
          "internalType": "address",
          "name": "to",
          "type": "address"
        },
        {
          "indexed": true,
          "internalType": "uint256",
          "name": "tokenId",
          "type": "uint256"
        }
      ],
      "name": "Transfer",
      "type": "event"
    },
    {
      "inputs": [
        {
          "internalType": "address",
          "name": "to",
          "type": "address"
        },
        {
          "internalType": "uint256",
          "name": "tokenId",
          "type": "uint256"
        }
      ],
      "name": "approve",
      "outputs": [],
      "stateMutability": "nonpayable",
      "type": "function"
    },
    {
      "inputs": [
        {
          "internalType": "address",
          "name": "owner",
          "type": "address"
        }
      ],
      "name": "balanceOf",
      "outputs": [
        {
          "internalType": "uint256",
          "name": "",
          "type": "uint256"
        }
      ],
      "stateMutability": "view",
      "type": "function"
    },
    {
      "inputs": [
        {
          "internalType": "uint256",
          "name": "tokenId",
          "type": "uint256"
        }
      ],
      "name": "getApproved",
      "outputs": [
        {
          "internalType": "address",
          "name": "",
          "type": "address"
        }
      ],
      "stateMutability": "view",
      "type": "function"
    },
    {
      "inputs": [
        {
          "internalType": "address",
          "name": "wallet",
          "type": "address"
        }
      ],
      "name": "getOwnedTokenIds",
      "outputs": [
        {
          "internalType": "uint256[]",
          "name": "",
          "type": "uint256[]"
        }
      ],
      "stateMutability": "view",
      "type": "function"
    },
    {
      "inputs": [
        {
          "internalType": "address",
          "name": "owner",
          "type": "address"
        },
        {
          "internalType": "address",
          "name": "operator",
          "type": "address"
        }
      ],
      "name": "isApprovedForAll",
      "outputs": [
        {
          "internalType": "bool",
          "name": "",
          "type": "bool"
        }
      ],
      "stateMutability": "view",
      "type": "function"
    },
    {
      "inputs": [
        {
          "internalType": "address",
          "name": "recipient",
          "type": "address"
        },
        {
          "internalType": "string",
          "name": "_tokenURI",
          "type": "string"
        }
      ],
      "name": "mint",
      "outputs": [
        {
          "internalType": "uint256",
          "name": "",
          "type": "uint256"
        }
      ],
      "stateMutability": "nonpayable",
      "type": "function"
    },
    {
      "inputs": [],
      "name": "name",
      "outputs": [
        {
          "internalType": "string",
          "name": "",
          "type": "string"
        }
      ],
      "stateMutability": "view",
      "type": "function"
    },
    {
      "inputs": [
        {
          "internalType": "uint256",
          "name": "tokenId",
          "type": "uint256"
        }
      ],
      "name": "ownerOf",
      "outputs": [
        {
          "internalType": "address",
          "name": "",
          "type": "address"
        }
      ],
      "stateMutability": "view",
      "type": "function"
    },
    {
      "inputs": [
        {
          "internalType": "uint256",
          "name": "",
          "type": "uint256"
        }
      ],
      "name": "prevPrice",
      "outputs": [
        {
          "internalType": "uint256",
          "name": "",
          "type": "uint256"
        }
      ],
      "stateMutability": "view",
      "type": "function"
    },
    {
      "inputs": [
        {
          "internalType": "address",
          "name": "from",
          "type": "address"
        },
        {
          "internalType": "address",
          "name": "to",
          "type": "address"
        },
        {
          "internalType": "uint256",
          "name": "tokenId",
          "type": "uint256"
        }
      ],
      "name": "safeTransferFrom",
      "outputs": [],
      "stateMutability": "nonpayable",
      "type": "function"
    },
    {
      "inputs": [
        {
          "internalType": "address",
          "name": "from",
          "type": "address"
        },
        {
          "internalType": "address",
          "name": "to",
          "type": "address"
        },
        {
          "internalType": "uint256",
          "name": "tokenId",
          "type": "uint256"
        },
        {
          "internalType": "bytes",
          "name": "data",
          "type": "bytes"
        }
      ],
      "name": "safeTransferFrom",
      "outputs": [],
      "stateMutability": "nonpayable",
      "type": "function"
    },
    {
      "inputs": [
        {
          "internalType": "address",
          "name": "operator",
          "type": "address"
        },
        {
          "internalType": "bool",
          "name": "approved",
          "type": "bool"
        }
      ],
      "name": "setApprovalForAll",
      "outputs": [],
      "stateMutability": "nonpayable",
      "type": "function"
    },
    {
      "inputs": [
        {
          "internalType": "uint256",
          "name": "tokenId",
          "type": "uint256"
        },
        {
          "internalType": "uint256",
          "name": "amount",
          "type": "uint256"
        }
      ],
      "name": "steal",
      "outputs": [],
      "stateMutability": "nonpayable",
      "type": "function"
    },
    {
      "inputs": [
        {
          "internalType": "bytes4",
          "name": "interfaceId",
          "type": "bytes4"
        }
      ],
      "name": "supportsInterface",
      "outputs": [
        {
          "internalType": "bool",
          "name": "",
          "type": "bool"
        }
      ],
      "stateMutability": "view",
      "type": "function"
    },
    {
      "inputs": [],
      "name": "symbol",
      "outputs": [
        {
          "internalType": "string",
          "name": "",
          "type": "string"
        }
      ],
      "stateMutability": "view",
      "type": "function"
    },
    {
      "inputs": [
        {
          "internalType": "uint256",
          "name": "index",
          "type": "uint256"
        }
      ],
      "name": "tokenByIndex",
      "outputs": [
        {
          "internalType": "uint256",
          "name": "",
          "type": "uint256"
        }
      ],
      "stateMutability": "view",
      "type": "function"
    },
    {
      "inputs": [
        {
          "internalType": "address",
          "name": "owner",
          "type": "address"
        },
        {
          "internalType": "uint256",
          "name": "index",
          "type": "uint256"
        }
      ],
      "name": "tokenOfOwnerByIndex",
      "outputs": [
        {
          "internalType": "uint256",
          "name": "",
          "type": "uint256"
        }
      ],
      "stateMutability": "view",
      "type": "function"
    },
    {
      "inputs": [
        {
          "internalType": "uint256",
          "name": "tokenId",
          "type": "uint256"
        }
      ],
      "name": "tokenURI",
      "outputs": [
        {
          "internalType": "string",
          "name": "",
          "type": "string"
        }
      ],
      "stateMutability": "view",
      "type": "function"
    },
    {
      "inputs": [],
      "name": "totalSupply",
      "outputs": [
        {
          "internalType": "uint256",
          "name": "",
          "type": "uint256"
        }
      ],
      "stateMutability": "view",
      "type": "function"
    },
    {
      "inputs": [
        {
          "internalType": "address",
          "name": "from",
          "type": "address"
        },
        {
          "internalType": "address",
          "name": "to",
          "type": "address"
        },
        {
          "internalType": "uint256",
          "name": "tokenId",
          "type": "uint256"
        }
      ],
      "name": "transferFrom",
      "outputs": [],
      "stateMutability": "nonpayable",
      "type": "function"
    }
  ],
  "bytecode": {
    "object": "0x60806040523480156200001157600080fd5b506040516200219e3803806200219e8339810160408190526200003491620000bd565b6040518060400160405280600681526020016541706543616d60d01b815250604051806040016040528060048152602001634143414d60e01b81525081600090816200008191906200019e565b5060016200009082826200019e565b5050600f80546001600160a01b0319166001600160a01b039490941693909317909255600d55506200026a565b60008060408385031215620000d157600080fd5b82516001600160a01b0381168114620000e957600080fd5b6020939093015192949293505050565b634e487b7160e01b600052604160045260246000fd5b600181811c908216806200012457607f821691505b6020821081036200014557634e487b7160e01b600052602260045260246000fd5b50919050565b601f8211156200019957600081815260208120601f850160051c81016020861015620001745750805b601f850160051c820191505b81811015620001955782815560010162000180565b5050505b505050565b81516001600160401b03811115620001ba57620001ba620000f9565b620001d281620001cb84546200010f565b846200014b565b602080601f8311600181146200020a5760008415620001f15750858301515b600019600386901b1c1916600185901b17855562000195565b600085815260208120601f198616915b828110156200023b578886015182559484019460019091019084016200021a565b50858210156200025a5787850151600019600388901b60f8161c191681555b5050505050600190811b01905550565b611f24806200027a6000396000f3fe608060405234801561001057600080fd5b506004361061012c5760003560e01c80634fac7e41116100ad578063b88d4fde11610071578063b88d4fde14610291578063c595ce94146102a4578063c87b56dd146102b7578063d0def521146102ca578063e985e9c5146102dd57600080fd5b80634fac7e41146102305780636352211e1461025057806370a082311461026357806395d89b4114610276578063a22cb4651461027e57600080fd5b806318160ddd116100f457806318160ddd146101dc57806323b872dd146101e45780632f745c59146101f757806342842e0e1461020a5780634f6ccce71461021d57600080fd5b806301d9d0ab1461013157806301ffc9a71461016457806306fdde0314610187578063081812fc1461019c578063095ea7b3146101c7575b600080fd5b61015161013f366004611801565b600e6020526000908152604090205481565b6040519081526020015b60405180910390f35b610177610172366004611830565b610319565b604051901515815260200161015b565b61018f61032a565b60405161015b919061189d565b6101af6101aa366004611801565b6103bc565b6040516001600160a01b03909116815260200161015b565b6101da6101d53660046118cc565b6103e3565b005b600854610151565b6101da6101f23660046118f6565b6104fd565b6101516102053660046118cc565b61052e565b6101da6102183660046118f6565b6105c4565b61015161022b366004611801565b6105df565b61024361023e366004611932565b610672565b60405161015b919061194d565b6101af61025e366004611801565b610779565b610151610271366004611932565b6107d9565b61018f61085f565b6101da61028c36600461199f565b61086e565b6101da61029f366004611a62565b61087d565b6101da6102b2366004611ade565b6108b5565b61018f6102c5366004611801565b610a24565b6101516102d8366004611b00565b610a2f565b6101776102eb366004611b62565b6001600160a01b03918216600090815260056020908152604080832093909416825291909152205460ff1690565b600061032482610a8b565b92915050565b60606000805461033990611b95565b80601f016020809104026020016040519081016040528092919081815260200182805461036590611b95565b80156103b25780601f10610387576101008083540402835291602001916103b2565b820191906000526020600020905b81548152906001019060200180831161039557829003601f168201915b5050505050905090565b60006103c782610ab0565b506000908152600460205260409020546001600160a01b031690565b60006103ee82610779565b9050806001600160a01b0316836001600160a01b0316036104605760405162461bcd60e51b815260206004820152602160248201527f4552433732313a20617070726f76616c20746f2063757272656e74206f776e656044820152603960f91b60648201526084015b60405180910390fd5b336001600160a01b038216148061047c575061047c81336102eb565b6104ee5760405162461bcd60e51b815260206004820152603d60248201527f4552433732313a20617070726f76652063616c6c6572206973206e6f7420746f60448201527f6b656e206f776e6572206f7220617070726f76656420666f7220616c6c0000006064820152608401610457565b6104f88383610b12565b505050565b6105073382610b80565b6105235760405162461bcd60e51b815260040161045790611bcf565b6104f8838383610bff565b6000610539836107d9565b821061059b5760405162461bcd60e51b815260206004820152602b60248201527f455243373231456e756d657261626c653a206f776e657220696e646578206f7560448201526a74206f6620626f756e647360a81b6064820152608401610457565b506001600160a01b03919091166000908152600660209081526040808320938352929052205490565b6104f88383836040518060200160405280600081525061087d565b60006105ea60085490565b821061064d5760405162461bcd60e51b815260206004820152602c60248201527f455243373231456e756d657261626c653a20676c6f62616c20696e646578206f60448201526b7574206f6620626f756e647360a01b6064820152608401610457565b6008828154811061066057610660611c1c565b90600052602060002001549050919050565b6060600061067f836107d9565b905060008167ffffffffffffffff81111561069c5761069c6119d6565b6040519080825280602002602001820160405280156106c5578160200160208202803683370190505b50905060005b8281101561077157604051632f745c5960e01b81526001600160a01b0386166004820152602481018290523090632f745c5990604401602060405180830381865afa15801561071e573d6000803e3d6000fd5b505050506040513d601f19601f820116820180604052508101906107429190611c32565b82828151811061075457610754611c1c565b60209081029190910101528061076981611c61565b9150506106cb565b509392505050565b6000818152600260205260408120546001600160a01b0316806103245760405162461bcd60e51b8152602060048201526018602482015277115490cdcc8c4e881a5b9d985b1a59081d1bdad95b88125160421b6044820152606401610457565b60006001600160a01b0382166108435760405162461bcd60e51b815260206004820152602960248201527f4552433732313a2061646472657373207a65726f206973206e6f7420612076616044820152683634b21037bbb732b960b91b6064820152608401610457565b506001600160a01b031660009081526003602052604090205490565b60606001805461033990611b95565b610879338383610d70565b5050565b6108873383610b80565b6108a35760405162461bcd60e51b815260040161045790611bcf565b6108af84848484610e3e565b50505050565b60006108c083610779565b90506001600160a01b038116330361091a5760405162461bcd60e51b815260206004820152601a60248201527f63616e6e6f7420737465616c2066726f6d20796f757273656c660000000000006044820152606401610457565b6000838152600e6020526040902054821161098b5760405162461bcd60e51b815260206004820152602b60248201527f6d75737420706179206d6f7265207468616e2070726576696f7573207065727360448201526a1bdb881d1bc81cdd19585b60aa1b6064820152608401610457565b6000838152600e602052604090208290556109a7813385610bff565b600f546040516323b872dd60e01b81523360048201526001600160a01b03838116602483015260448201859052909116906323b872dd906064016020604051808303816000875af1158015610a00573d6000803e3d6000fd5b505050506040513d601f19601f820116820180604052508101906108af9190611c7a565b606061032482610e71565b600043600c5410610a3f57600080fd5b6000610a4a600b5490565b9050610a568482610f79565b610a608184611112565b43600c55600d546000828152600e6020526040902055610a84600b80546001019055565b9392505050565b60006001600160e01b03198216632483248360e11b14806103245750610324826111dd565b6000818152600260205260409020546001600160a01b0316610b0f5760405162461bcd60e51b8152602060048201526018602482015277115490cdcc8c4e881a5b9d985b1a59081d1bdad95b88125160421b6044820152606401610457565b50565b600081815260046020526040902080546001600160a01b0319166001600160a01b0384169081179091558190610b4782610779565b6001600160a01b03167f8c5be1e5ebec7d5bd14f71427d1e84f3dd0314c0f7b2291e5b200ac8c7c3b92560405160405180910390a45050565b600080610b8c83610779565b9050806001600160a01b0316846001600160a01b03161480610bd357506001600160a01b0380821660009081526005602090815260408083209388168352929052205460ff165b80610bf75750836001600160a01b0316610bec846103bc565b6001600160a01b0316145b949350505050565b826001600160a01b0316610c1282610779565b6001600160a01b031614610c385760405162461bcd60e51b815260040161045790611c97565b6001600160a01b038216610c9a5760405162461bcd60e51b8152602060048201526024808201527f4552433732313a207472616e7366657220746f20746865207a65726f206164646044820152637265737360e01b6064820152608401610457565b610ca78383836001611202565b826001600160a01b0316610cba82610779565b6001600160a01b031614610ce05760405162461bcd60e51b815260040161045790611c97565b600081815260046020908152604080832080546001600160a01b03199081169091556001600160a01b0387811680865260038552838620805460001901905590871680865283862080546001019055868652600290945282852080549092168417909155905184937fddf252ad1be2c89b69c2b068fc378daa952ba7f163c4a11628f55a4df523b3ef91a4505050565b816001600160a01b0316836001600160a01b031603610dd15760405162461bcd60e51b815260206004820152601960248201527f4552433732313a20617070726f766520746f2063616c6c6572000000000000006044820152606401610457565b6001600160a01b03838116600081815260056020908152604080832094871680845294825291829020805460ff191686151590811790915591519182527f17307eab39ab6107e8899845ad3d59bd9653f200f220920489ca2b5937696c31910160405180910390a3505050565b610e49848484610bff565b610e558484848461120e565b6108af5760405162461bcd60e51b815260040161045790611cdc565b6060610e7c82610ab0565b6000828152600a602052604081208054610e9590611b95565b80601f0160208091040260200160405190810160405280929190818152602001828054610ec190611b95565b8015610f0e5780601f10610ee357610100808354040283529160200191610f0e565b820191906000526020600020905b815481529060010190602001808311610ef157829003601f168201915b505050505090506000610f2c60408051602081019091526000815290565b90508051600003610f3e575092915050565b815115610f70578082604051602001610f58929190611d2e565b60405160208183030381529060405292505050919050565b610bf78461130f565b6001600160a01b038216610fcf5760405162461bcd60e51b815260206004820181905260248201527f4552433732313a206d696e7420746f20746865207a65726f20616464726573736044820152606401610457565b6000818152600260205260409020546001600160a01b0316156110345760405162461bcd60e51b815260206004820152601c60248201527f4552433732313a20746f6b656e20616c7265616479206d696e746564000000006044820152606401610457565b611042600083836001611202565b6000818152600260205260409020546001600160a01b0316156110a75760405162461bcd60e51b815260206004820152601c60248201527f4552433732313a20746f6b656e20616c7265616479206d696e746564000000006044820152606401610457565b6001600160a01b038216600081815260036020908152604080832080546001019055848352600290915280822080546001600160a01b0319168417905551839291907fddf252ad1be2c89b69c2b068fc378daa952ba7f163c4a11628f55a4df523b3ef908290a45050565b6000828152600260205260409020546001600160a01b031661118d5760405162461bcd60e51b815260206004820152602e60248201527f45524337323155524953746f726167653a2055524920736574206f66206e6f6e60448201526d32bc34b9ba32b73a103a37b5b2b760911b6064820152608401610457565b6000828152600a602052604090206111a58282611dab565b506040518281527ff8e1a15aba9398e019f0b49df1a4fde98ee17ae345cb5f6b5e2c27f5033e8ce79060200160405180910390a15050565b60006001600160e01b0319821663780e9d6360e01b1480610324575061032482611382565b6108af848484846113d2565b60006001600160a01b0384163b1561130457604051630a85bd0160e11b81526001600160a01b0385169063150b7a0290611252903390899088908890600401611e6b565b6020604051808303816000875af192505050801561128d575060408051601f3d908101601f1916820190925261128a91810190611ea8565b60015b6112ea573d8080156112bb576040519150601f19603f3d011682016040523d82523d6000602084013e6112c0565b606091505b5080516000036112e25760405162461bcd60e51b815260040161045790611cdc565b805181602001fd5b6001600160e01b031916630a85bd0160e11b149050610bf7565b506001949350505050565b606061131a82610ab0565b600061133160408051602081019091526000815290565b905060008151116113515760405180602001604052806000815250610a84565b8061135b84611506565b60405160200161136c929190611d2e565b6040516020818303038152906040529392505050565b60006001600160e01b031982166380ac58cd60e01b14806113b357506001600160e01b03198216635b5e139f60e01b145b8061032457506301ffc9a760e01b6001600160e01b0319831614610324565b60018111156114415760405162461bcd60e51b815260206004820152603560248201527f455243373231456e756d657261626c653a20636f6e7365637574697665207472604482015274185b9cd9995c9cc81b9bdd081cdd5c1c1bdc9d1959605a1b6064820152608401610457565b816001600160a01b03851661149d5761149881600880546000838152600960205260408120829055600182018355919091527ff3f7a9fe364faab93b216da50a3214154f22a0a2b415b23a84c8169e8b636ee30155565b6114c0565b836001600160a01b0316856001600160a01b0316146114c0576114c08582611599565b6001600160a01b0384166114dc576114d781611636565b6114ff565b846001600160a01b0316846001600160a01b0316146114ff576114ff84826116e5565b5050505050565b6060600061151383611729565b600101905060008167ffffffffffffffff811115611533576115336119d6565b6040519080825280601f01601f19166020018201604052801561155d576020820181803683370190505b5090508181016020015b600019016f181899199a1a9b1b9c1cb0b131b232b360811b600a86061a8153600a850494508461156757509392505050565b600060016115a6846107d9565b6115b09190611ec5565b600083815260076020526040902054909150808214611603576001600160a01b03841660009081526006602090815260408083208584528252808320548484528184208190558352600790915290208190555b5060009182526007602090815260408084208490556001600160a01b039094168352600681528383209183525290812055565b60085460009061164890600190611ec5565b6000838152600960205260408120546008805493945090928490811061167057611670611c1c565b90600052602060002001549050806008838154811061169157611691611c1c565b60009182526020808320909101929092558281526009909152604080822084905585825281205560088054806116c9576116c9611ed8565b6001900381819060005260206000200160009055905550505050565b60006116f0836107d9565b6001600160a01b039093166000908152600660209081526040808320868452825280832085905593825260079052919091209190915550565b60008072184f03e93ff9f4daa797ed6e38ed64bf6a1f0160401b83106117685772184f03e93ff9f4daa797ed6e38ed64bf6a1f0160401b830492506040015b6d04ee2d6d415b85acef81000000008310611794576d04ee2d6d415b85acef8100000000830492506020015b662386f26fc1000083106117b257662386f26fc10000830492506010015b6305f5e10083106117ca576305f5e100830492506008015b61271083106117de57612710830492506004015b606483106117f0576064830492506002015b600a83106103245760010192915050565b60006020828403121561181357600080fd5b5035919050565b6001600160e01b031981168114610b0f57600080fd5b60006020828403121561184257600080fd5b8135610a848161181a565b60005b83811015611868578181015183820152602001611850565b50506000910152565b6000815180845261188981602086016020860161184d565b601f01601f19169290920160200192915050565b602081526000610a846020830184611871565b80356001600160a01b03811681146118c757600080fd5b919050565b600080604083850312156118df57600080fd5b6118e8836118b0565b946020939093013593505050565b60008060006060848603121561190b57600080fd5b611914846118b0565b9250611922602085016118b0565b9150604084013590509250925092565b60006020828403121561194457600080fd5b610a84826118b0565b6020808252825182820181905260009190848201906040850190845b8181101561198557835183529284019291840191600101611969565b50909695505050505050565b8015158114610b0f57600080fd5b600080604083850312156119b257600080fd5b6119bb836118b0565b915060208301356119cb81611991565b809150509250929050565b634e487b7160e01b600052604160045260246000fd5b600067ffffffffffffffff80841115611a0757611a076119d6565b604051601f8501601f19908116603f01168101908282118183101715611a2f57611a2f6119d6565b81604052809350858152868686011115611a4857600080fd5b858560208301376000602087830101525050509392505050565b60008060008060808587031215611a7857600080fd5b611a81856118b0565b9350611a8f602086016118b0565b925060408501359150606085013567ffffffffffffffff811115611ab257600080fd5b8501601f81018713611ac357600080fd5b611ad2878235602084016119ec565b91505092959194509250565b60008060408385031215611af157600080fd5b50508035926020909101359150565b60008060408385031215611b1357600080fd5b611b1c836118b0565b9150602083013567ffffffffffffffff811115611b3857600080fd5b8301601f81018513611b4957600080fd5b611b58858235602084016119ec565b9150509250929050565b60008060408385031215611b7557600080fd5b611b7e836118b0565b9150611b8c602084016118b0565b90509250929050565b600181811c90821680611ba957607f821691505b602082108103611bc957634e487b7160e01b600052602260045260246000fd5b50919050565b6020808252602d908201527f4552433732313a2063616c6c6572206973206e6f7420746f6b656e206f776e6560408201526c1c881bdc88185c1c1c9bdd9959609a1b606082015260800190565b634e487b7160e01b600052603260045260246000fd5b600060208284031215611c4457600080fd5b5051919050565b634e487b7160e01b600052601160045260246000fd5b600060018201611c7357611c73611c4b565b5060010190565b600060208284031215611c8c57600080fd5b8151610a8481611991565b60208082526025908201527f4552433732313a207472616e736665722066726f6d20696e636f72726563742060408201526437bbb732b960d91b606082015260800190565b60208082526032908201527f4552433732313a207472616e7366657220746f206e6f6e20455243373231526560408201527131b2b4bb32b91034b6b83632b6b2b73a32b960711b606082015260800190565b60008351611d4081846020880161184d565b835190830190611d5481836020880161184d565b01949350505050565b601f8211156104f857600081815260208120601f850160051c81016020861015611d845750805b601f850160051c820191505b81811015611da357828155600101611d90565b505050505050565b815167ffffffffffffffff811115611dc557611dc56119d6565b611dd981611dd38454611b95565b84611d5d565b602080601f831160018114611e0e5760008415611df65750858301515b600019600386901b1c1916600185901b178555611da3565b600085815260208120601f198616915b82811015611e3d57888601518255948401946001909101908401611e1e565b5085821015611e5b5787850151600019600388901b60f8161c191681555b5050505050600190811b01905550565b6001600160a01b0385811682528416602082015260408101839052608060608201819052600090611e9e90830184611871565b9695505050505050565b600060208284031215611eba57600080fd5b8151610a848161181a565b8181038181111561032457610324611c4b565b634e487b7160e01b600052603160045260246000fdfea2646970667358221220d233724e9b188838ff9a4b3ce63122a027a0b3719fa9ffb252016dbc67be81ff64736f6c63430008140033",
    "linkReferences": {}
  },
  "methodIdentifiers": {
    "approve(address,uint256)": "095ea7b3",
    "balanceOf(address)": "70a08231",
    "getApproved(uint256)": "081812fc",
    "getOwnedTokenIds(address)": "4fac7e41",
    "isApprovedForAll(address,address)": "e985e9c5",
    "mint(address,string)": "d0def521",
    "name()": "06fdde03",
    "ownerOf(uint256)": "6352211e",
    "prevPrice(uint256)": "01d9d0ab",
    "safeTransferFrom(address,address,uint256)": "42842e0e",
    "safeTransferFrom(address,address,uint256,bytes)": "b88d4fde",
    "setApprovalForAll(address,bool)": "a22cb465",
    "steal(uint256,uint256)": "c595ce94",
    "supportsInterface(bytes4)": "01ffc9a7",
    "symbol()": "95d89b41",
    "tokenByIndex(uint256)": "4f6ccce7",
    "tokenOfOwnerByIndex(address,uint256)": "2f745c59",
    "tokenURI(uint256)": "c87b56dd",
    "totalSupply()": "18160ddd",
    "transferFrom(address,address,uint256)": "23b872dd"
  },
  "id": 40
}